{
  "_format": "hh-sol-artifact-1",
  "contractName": "MyEpicGame",
  "sourceName": "contracts/MyEpicGame.sol",
  "abi": [
    {
      "inputs": [
        {
          "internalType": "string[]",
          "name": "characterNames",
          "type": "string[]"
        },
        {
          "internalType": "string[]",
          "name": "characterImageURIs",
          "type": "string[]"
        },
        {
          "internalType": "uint256[]",
          "name": "characterHp",
          "type": "uint256[]"
        },
        {
          "internalType": "uint256[]",
          "name": "characterAttackDmg",
          "type": "uint256[]"
        },
        {
          "internalType": "string[]",
          "name": "characterLevels",
          "type": "string[]"
        },
        {
          "internalType": "string",
          "name": "bossName",
          "type": "string"
        },
        {
          "internalType": "string",
          "name": "bossImageURI",
          "type": "string"
        },
        {
          "internalType": "uint256",
          "name": "bossHp",
          "type": "uint256"
        },
        {
          "internalType": "uint256",
          "name": "bossAttackDamage",
          "type": "uint256"
        }
      ],
      "stateMutability": "nonpayable",
      "type": "constructor"
    },
    {
      "anonymous": false,
      "inputs": [
        {
          "indexed": true,
          "internalType": "address",
          "name": "owner",
          "type": "address"
        },
        {
          "indexed": true,
          "internalType": "address",
          "name": "approved",
          "type": "address"
        },
        {
          "indexed": true,
          "internalType": "uint256",
          "name": "tokenId",
          "type": "uint256"
        }
      ],
      "name": "Approval",
      "type": "event"
    },
    {
      "anonymous": false,
      "inputs": [
        {
          "indexed": true,
          "internalType": "address",
          "name": "owner",
          "type": "address"
        },
        {
          "indexed": true,
          "internalType": "address",
          "name": "operator",
          "type": "address"
        },
        {
          "indexed": false,
          "internalType": "bool",
          "name": "approved",
          "type": "bool"
        }
      ],
      "name": "ApprovalForAll",
      "type": "event"
    },
    {
      "anonymous": false,
      "inputs": [
        {
          "indexed": false,
          "internalType": "uint256",
          "name": "newBossHp",
          "type": "uint256"
        },
        {
          "indexed": false,
          "internalType": "uint256",
          "name": "newPlayerHp",
          "type": "uint256"
        }
      ],
      "name": "AttackComplete",
      "type": "event"
    },
    {
      "anonymous": false,
      "inputs": [
        {
          "indexed": false,
          "internalType": "address",
          "name": "sender",
          "type": "address"
        },
        {
          "indexed": false,
          "internalType": "uint256",
          "name": "tokenId",
          "type": "uint256"
        },
        {
          "indexed": false,
          "internalType": "uint256",
          "name": "characterIndex",
          "type": "uint256"
        }
      ],
      "name": "CharacterNFTMinted",
      "type": "event"
    },
    {
      "anonymous": false,
      "inputs": [
        {
          "indexed": true,
          "internalType": "address",
          "name": "from",
          "type": "address"
        },
        {
          "indexed": true,
          "internalType": "address",
          "name": "to",
          "type": "address"
        },
        {
          "indexed": true,
          "internalType": "uint256",
          "name": "tokenId",
          "type": "uint256"
        }
      ],
      "name": "Transfer",
      "type": "event"
    },
    {
      "inputs": [
        {
          "internalType": "address",
          "name": "to",
          "type": "address"
        },
        {
          "internalType": "uint256",
          "name": "tokenId",
          "type": "uint256"
        }
      ],
      "name": "approve",
      "outputs": [],
      "stateMutability": "nonpayable",
      "type": "function"
    },
    {
      "inputs": [
        {
          "internalType": "uint256",
          "name": "_nftTokenIdofPlayer",
          "type": "uint256"
        }
      ],
      "name": "attackBoss",
      "outputs": [],
      "stateMutability": "nonpayable",
      "type": "function"
    },
    {
      "inputs": [
        {
          "internalType": "address",
          "name": "owner",
          "type": "address"
        }
      ],
      "name": "balanceOf",
      "outputs": [
        {
          "internalType": "uint256",
          "name": "",
          "type": "uint256"
        }
      ],
      "stateMutability": "view",
      "type": "function"
    },
    {
      "inputs": [],
      "name": "bigBoss",
      "outputs": [
        {
          "internalType": "string",
          "name": "name",
          "type": "string"
        },
        {
          "internalType": "string",
          "name": "imageURI",
          "type": "string"
        },
        {
          "internalType": "uint256",
          "name": "hp",
          "type": "uint256"
        },
        {
          "internalType": "uint256",
          "name": "maxHp",
          "type": "uint256"
        },
        {
          "internalType": "uint256",
          "name": "attackDamage",
          "type": "uint256"
        }
      ],
      "stateMutability": "view",
      "type": "function"
    },
    {
      "inputs": [],
      "name": "checkIfUserHasNFT",
      "outputs": [
        {
          "components": [
            {
              "internalType": "uint256",
              "name": "characterIndex",
              "type": "uint256"
            },
            {
              "internalType": "string",
              "name": "name",
              "type": "string"
            },
            {
              "internalType": "string",
              "name": "imageURI",
              "type": "string"
            },
            {
              "internalType": "uint256",
              "name": "hp",
              "type": "uint256"
            },
            {
              "internalType": "uint256",
              "name": "maxHp",
              "type": "uint256"
            },
            {
              "internalType": "uint256",
              "name": "attackDamage",
              "type": "uint256"
            },
            {
              "internalType": "string",
              "name": "levels",
              "type": "string"
            }
          ],
          "internalType": "struct MyEpicGame.CharacterAttributes[]",
          "name": "",
          "type": "tuple[]"
        }
      ],
      "stateMutability": "view",
      "type": "function"
    },
    {
      "inputs": [],
      "name": "getAllDefaultCharacters",
      "outputs": [
        {
          "components": [
            {
              "internalType": "uint256",
              "name": "characterIndex",
              "type": "uint256"
            },
            {
              "internalType": "string",
              "name": "name",
              "type": "string"
            },
            {
              "internalType": "string",
              "name": "imageURI",
              "type": "string"
            },
            {
              "internalType": "uint256",
              "name": "hp",
              "type": "uint256"
            },
            {
              "internalType": "uint256",
              "name": "maxHp",
              "type": "uint256"
            },
            {
              "internalType": "uint256",
              "name": "attackDamage",
              "type": "uint256"
            },
            {
              "internalType": "string",
              "name": "levels",
              "type": "string"
            }
          ],
          "internalType": "struct MyEpicGame.CharacterAttributes[]",
          "name": "",
          "type": "tuple[]"
        }
      ],
      "stateMutability": "view",
      "type": "function"
    },
    {
      "inputs": [
        {
          "internalType": "uint256",
          "name": "tokenId",
          "type": "uint256"
        }
      ],
      "name": "getApproved",
      "outputs": [
        {
          "internalType": "address",
          "name": "",
          "type": "address"
        }
      ],
      "stateMutability": "view",
      "type": "function"
    },
    {
      "inputs": [],
      "name": "getBigBoss",
      "outputs": [
        {
          "components": [
            {
              "internalType": "string",
              "name": "name",
              "type": "string"
            },
            {
              "internalType": "string",
              "name": "imageURI",
              "type": "string"
            },
            {
              "internalType": "uint256",
              "name": "hp",
              "type": "uint256"
            },
            {
              "internalType": "uint256",
              "name": "maxHp",
              "type": "uint256"
            },
            {
              "internalType": "uint256",
              "name": "attackDamage",
              "type": "uint256"
            }
          ],
          "internalType": "struct MyEpicGame.BigBoss",
          "name": "",
          "type": "tuple"
        }
      ],
      "stateMutability": "view",
      "type": "function"
    },
    {
      "inputs": [
        {
          "internalType": "address",
          "name": "owner",
          "type": "address"
        },
        {
          "internalType": "address",
          "name": "operator",
          "type": "address"
        }
      ],
      "name": "isApprovedForAll",
      "outputs": [
        {
          "internalType": "bool",
          "name": "",
          "type": "bool"
        }
      ],
      "stateMutability": "view",
      "type": "function"
    },
    {
      "inputs": [
        {
          "internalType": "uint256",
          "name": "_characterIndex",
          "type": "uint256"
        }
      ],
      "name": "mintCharacterNFT",
      "outputs": [],
      "stateMutability": "nonpayable",
      "type": "function"
    },
    {
      "inputs": [],
      "name": "name",
      "outputs": [
        {
          "internalType": "string",
          "name": "",
          "type": "string"
        }
      ],
      "stateMutability": "view",
      "type": "function"
    },
    {
      "inputs": [
        {
          "internalType": "address",
          "name": "",
          "type": "address"
        },
        {
          "internalType": "uint256",
          "name": "",
          "type": "uint256"
        }
      ],
      "name": "nftHolderAttributes",
      "outputs": [
        {
          "internalType": "uint256",
          "name": "characterIndex",
          "type": "uint256"
        },
        {
          "internalType": "string",
          "name": "name",
          "type": "string"
        },
        {
          "internalType": "string",
          "name": "imageURI",
          "type": "string"
        },
        {
          "internalType": "uint256",
          "name": "hp",
          "type": "uint256"
        },
        {
          "internalType": "uint256",
          "name": "maxHp",
          "type": "uint256"
        },
        {
          "internalType": "uint256",
          "name": "attackDamage",
          "type": "uint256"
        },
        {
          "internalType": "string",
          "name": "levels",
          "type": "string"
        }
      ],
      "stateMutability": "view",
      "type": "function"
    },
    {
      "inputs": [
        {
          "internalType": "address",
          "name": "",
          "type": "address"
        }
      ],
      "name": "nftHolders",
      "outputs": [
        {
          "internalType": "uint256",
          "name": "",
          "type": "uint256"
        }
      ],
      "stateMutability": "view",
      "type": "function"
    },
    {
      "inputs": [
        {
          "internalType": "uint256",
          "name": "tokenId",
          "type": "uint256"
        }
      ],
      "name": "ownerOf",
      "outputs": [
        {
          "internalType": "address",
          "name": "",
          "type": "address"
        }
      ],
      "stateMutability": "view",
      "type": "function"
    },
    {
      "inputs": [
        {
          "internalType": "address",
          "name": "from",
          "type": "address"
        },
        {
          "internalType": "address",
          "name": "to",
          "type": "address"
        },
        {
          "internalType": "uint256",
          "name": "tokenId",
          "type": "uint256"
        }
      ],
      "name": "safeTransferFrom",
      "outputs": [],
      "stateMutability": "nonpayable",
      "type": "function"
    },
    {
      "inputs": [
        {
          "internalType": "address",
          "name": "from",
          "type": "address"
        },
        {
          "internalType": "address",
          "name": "to",
          "type": "address"
        },
        {
          "internalType": "uint256",
          "name": "tokenId",
          "type": "uint256"
        },
        {
          "internalType": "bytes",
          "name": "_data",
          "type": "bytes"
        }
      ],
      "name": "safeTransferFrom",
      "outputs": [],
      "stateMutability": "nonpayable",
      "type": "function"
    },
    {
      "inputs": [
        {
          "internalType": "address",
          "name": "operator",
          "type": "address"
        },
        {
          "internalType": "bool",
          "name": "approved",
          "type": "bool"
        }
      ],
      "name": "setApprovalForAll",
      "outputs": [],
      "stateMutability": "nonpayable",
      "type": "function"
    },
    {
      "inputs": [
        {
          "internalType": "bytes4",
          "name": "interfaceId",
          "type": "bytes4"
        }
      ],
      "name": "supportsInterface",
      "outputs": [
        {
          "internalType": "bool",
          "name": "",
          "type": "bool"
        }
      ],
      "stateMutability": "view",
      "type": "function"
    },
    {
      "inputs": [],
      "name": "symbol",
      "outputs": [
        {
          "internalType": "string",
          "name": "",
          "type": "string"
        }
      ],
      "stateMutability": "view",
      "type": "function"
    },
    {
      "inputs": [
        {
          "internalType": "uint256",
          "name": "_tokenId",
          "type": "uint256"
        }
      ],
      "name": "tokenURI",
      "outputs": [
        {
          "internalType": "string",
          "name": "",
          "type": "string"
        }
      ],
      "stateMutability": "view",
      "type": "function"
    },
    {
      "inputs": [
        {
          "internalType": "address",
          "name": "from",
          "type": "address"
        },
        {
          "internalType": "address",
          "name": "to",
          "type": "address"
        },
        {
          "internalType": "uint256",
          "name": "tokenId",
          "type": "uint256"
        }
      ],
      "name": "transferFrom",
      "outputs": [],
      "stateMutability": "nonpayable",
      "type": "function"
    }
  ],
  "bytecode": "0x60806040523480156200001157600080fd5b5060405162005eb238038062005eb2833981810160405281019062000037919062000b85565b6040518060400160405280600681526020017f4865726f657300000000000000000000000000000000000000000000000000008152506040518060400160405280600481526020017f4845524f000000000000000000000000000000000000000000000000000000008152508160009080519060200190620000bb929190620008ed565b508060019080519060200190620000d4929190620008ed565b5050506040518060a0016040528085815260200184815260200183815260200183815260200182815250600660008201518160000190805190602001906200011e929190620008ed565b5060208201518160010190805190602001906200013d929190620008ed565b50604082015181600201556060820151816003015560808201518160040155905050620002c06040518060600160405280602c815260200162005e86602c9139600660000180546200018f9062000eda565b80601f0160208091040260200160405190810160405280929190818152602001828054620001bd9062000eda565b80156200020e5780601f10620001e2576101008083540402835291602001916200020e565b820191906000526020600020905b815481529060010190602001808311620001f057829003601f168201915b5050505050600660020154600660010180546200022b9062000eda565b80601f0160208091040260200160405190810160405280929190818152602001828054620002599062000eda565b8015620002aa5780601f106200027e57610100808354040283529160200191620002aa565b820191906000526020600020905b8154815290600101906020018083116200028c57829003601f168201915b50505050506200080260201b620020b41760201c565b60005b8951811015620007db57600c6040518060e001604052808381526020018c84815181106200031a577f4e487b7100000000000000000000000000000000000000000000000000000000600052603260045260246000fd5b602002602001015181526020018b848151811062000361577f4e487b7100000000000000000000000000000000000000000000000000000000600052603260045260246000fd5b602002602001015181526020018a8481518110620003a8577f4e487b7100000000000000000000000000000000000000000000000000000000600052603260045260246000fd5b602002602001015181526020018a8481518110620003ef577f4e487b7100000000000000000000000000000000000000000000000000000000600052603260045260246000fd5b6020026020010151815260200189848151811062000436577f4e487b7100000000000000000000000000000000000000000000000000000000600052603260045260246000fd5b602002602001015181526020018884815181106200047d577f4e487b7100000000000000000000000000000000000000000000000000000000600052603260045260246000fd5b60200260200101518152509080600181540180825580915050600190039060005260206000209060070201600090919091909150600082015181600001556020820151816001019080519060200190620004d9929190620008ed565b506040820151816002019080519060200190620004f8929190620008ed565b50606082015181600301556080820151816004015560a0820151816005015560c082015181600601908051906020019062000535929190620008ed565b5050506000600c828154811062000575577f4e487b7100000000000000000000000000000000000000000000000000000000600052603260045260246000fd5b90600052602060002090600702016040518060e001604052908160008201548152602001600182018054620005aa9062000eda565b80601f0160208091040260200160405190810160405280929190818152602001828054620005d89062000eda565b8015620006295780601f10620005fd5761010080835404028352916020019162000629565b820191906000526020600020905b8154815290600101906020018083116200060b57829003601f168201915b50505050508152602001600282018054620006449062000eda565b80601f0160208091040260200160405190810160405280929190818152602001828054620006729062000eda565b8015620006c35780601f106200069757610100808354040283529160200191620006c3565b820191906000526020600020905b815481529060010190602001808311620006a557829003601f168201915b50505050508152602001600382015481526020016004820154815260200160058201548152602001600682018054620006fc9062000eda565b80601f01602080910402602001604051908101604052809291908181526020018280546200072a9062000eda565b80156200077b5780601f106200074f576101008083540402835291602001916200077b565b820191906000526020600020905b8154815290600101906020018083116200075d57829003601f168201915b5050505050815250509050620007c460405180606001604052806025815260200162005e61602591398260200151836060015184604001516200080260201b620020b41760201c565b508080620007d29062000f46565b915050620002c3565b50620007f3600b620008ae60201b620021561760201c565b5050505050505050506200104c565b620008a8848484846040516024016200081f949392919062000d5f565b6040516020818303038152906040527f8d142cdd000000000000000000000000000000000000000000000000000000007bffffffffffffffffffffffffffffffffffffffffffffffffffffffff19166020820180517bffffffffffffffffffffffffffffffffffffffffffffffffffffffff8381831617835250505050620008c460201b60201c565b50505050565b6001816000016000828254019250508190555050565b60008151905060006a636f6e736f6c652e6c6f679050602083016000808483855afa5050505050565b828054620008fb9062000eda565b90600052602060002090601f0160209004810192826200091f57600085556200096b565b82601f106200093a57805160ff19168380011785556200096b565b828001600101855582156200096b579182015b828111156200096a5782518255916020019190600101906200094d565b5b5090506200097a91906200097e565b5090565b5b80821115620009995760008160009055506001016200097f565b5090565b6000620009b4620009ae8462000dea565b62000dc1565b90508083825260208201905082856020860282011115620009d457600080fd5b60005b8581101562000a2357815167ffffffffffffffff811115620009f857600080fd5b80860162000a07898262000b41565b85526020850194506020840193505050600181019050620009d7565b5050509392505050565b600062000a4462000a3e8462000e19565b62000dc1565b9050808382526020820190508285602086028201111562000a6457600080fd5b60005b8581101562000a98578162000a7d888262000b6e565b84526020840193506020830192505060018101905062000a67565b5050509392505050565b600062000ab962000ab38462000e48565b62000dc1565b90508281526020810184848401111562000ad257600080fd5b62000adf84828562000ea4565b509392505050565b600082601f83011262000af957600080fd5b815162000b0b8482602086016200099d565b91505092915050565b600082601f83011262000b2657600080fd5b815162000b3884826020860162000a2d565b91505092915050565b600082601f83011262000b5357600080fd5b815162000b6584826020860162000aa2565b91505092915050565b60008151905062000b7f8162001032565b92915050565b60008060008060008060008060006101208a8c03121562000ba557600080fd5b60008a015167ffffffffffffffff81111562000bc057600080fd5b62000bce8c828d0162000ae7565b99505060208a015167ffffffffffffffff81111562000bec57600080fd5b62000bfa8c828d0162000ae7565b98505060408a015167ffffffffffffffff81111562000c1857600080fd5b62000c268c828d0162000b14565b97505060608a015167ffffffffffffffff81111562000c4457600080fd5b62000c528c828d0162000b14565b96505060808a015167ffffffffffffffff81111562000c7057600080fd5b62000c7e8c828d0162000ae7565b95505060a08a015167ffffffffffffffff81111562000c9c57600080fd5b62000caa8c828d0162000b41565b94505060c08a015167ffffffffffffffff81111562000cc857600080fd5b62000cd68c828d0162000b41565b93505060e062000ce98c828d0162000b6e565b92505061010062000cfd8c828d0162000b6e565b9150509295985092959850929598565b600062000d1a8262000e7e565b62000d26818562000e89565b935062000d3881856020860162000ea4565b62000d438162001021565b840191505092915050565b62000d598162000e9a565b82525050565b6000608082019050818103600083015262000d7b818762000d0d565b9050818103602083015262000d91818662000d0d565b905062000da2604083018562000d4e565b818103606083015262000db6818462000d0d565b905095945050505050565b600062000dcd62000de0565b905062000ddb828262000f10565b919050565b6000604051905090565b600067ffffffffffffffff82111562000e085762000e0762000ff2565b5b602082029050602081019050919050565b600067ffffffffffffffff82111562000e375762000e3662000ff2565b5b602082029050602081019050919050565b600067ffffffffffffffff82111562000e665762000e6562000ff2565b5b62000e718262001021565b9050602081019050919050565b600081519050919050565b600082825260208201905092915050565b6000819050919050565b60005b8381101562000ec457808201518184015260208101905062000ea7565b8381111562000ed4576000848401525b50505050565b6000600282049050600182168062000ef357607f821691505b6020821081141562000f0a5762000f0962000fc3565b5b50919050565b62000f1b8262001021565b810181811067ffffffffffffffff8211171562000f3d5762000f3c62000ff2565b5b80604052505050565b600062000f538262000e9a565b91507fffffffffffffffffffffffffffffffffffffffffffffffffffffffffffffffff82141562000f895762000f8862000f94565b5b600182019050919050565b7f4e487b7100000000000000000000000000000000000000000000000000000000600052601160045260246000fd5b7f4e487b7100000000000000000000000000000000000000000000000000000000600052602260045260246000fd5b7f4e487b7100000000000000000000000000000000000000000000000000000000600052604160045260246000fd5b6000601f19601f8301169050919050565b6200103d8162000e9a565b81146200104957600080fd5b50565b614e05806200105c6000396000f3fe608060405234801561001057600080fd5b50600436106101375760003560e01c806370a08231116100b8578063b88d4fde1161007c578063b88d4fde1461036a578063b953084e14610386578063c87b56dd146103a4578063c8cf27f4146103d4578063e985e9c5146103f2578063f8b81ef71461042257610137565b806370a08231146102ae5780637df124a1146102de57806395d89b411461030e578063a22cb4651461032c578063a9c326791461034857610137565b8063095ea7b3116100ff578063095ea7b3146101f457806323b872dd1461021057806342842e0e1461022c5780634e731ff4146102485780636352211e1461027e57610137565b806301ffc9a71461013c5780630619f9321461016c5780630665f9611461018857806306fdde03146101a6578063081812fc146101c4575b600080fd5b610156600480360381019061015191906134f1565b61043e565b6040516101639190613d1b565b60405180910390f35b61018660048036038101906101819190613543565b610520565b005b6101906108d9565b60405161019d91906140b4565b60405180910390f35b6101ae610a35565b6040516101bb9190613d36565b60405180910390f35b6101de60048036038101906101d99190613543565b610ac7565b6040516101eb9190613c5b565b60405180910390f35b61020e600480360381019061020991906134b5565b610b4c565b005b61022a600480360381019061022591906133af565b610c64565b005b610246600480360381019061024191906133af565b610cc4565b005b610262600480360381019061025d91906134b5565b610ce4565b60405161027597969594939291906140f1565b60405180910390f35b61029860048036038101906102939190613543565b610edb565b6040516102a59190613c5b565b60405180910390f35b6102c860048036038101906102c3919061334a565b610f8d565b6040516102d591906140d6565b60405180910390f35b6102f860048036038101906102f3919061334a565b611045565b60405161030591906140d6565b60405180910390f35b61031661105d565b6040516103239190613d36565b60405180910390f35b61034660048036038101906103419190613479565b6110ef565b005b610350611105565b604051610361959493929190613e05565b60405180910390f35b610384600480360381019061037f91906133fe565b611239565b005b61038e61129b565b60405161039b9190613cf9565b60405180910390f35b6103be60048036038101906103b99190613543565b6114d8565b6040516103cb9190613d36565b60405180910390f35b6103dc6117fd565b6040516103e99190613cf9565b60405180910390f35b61040c60048036038101906104079190613373565b611aca565b6040516104199190613d1b565b60405180910390f35b61043c60048036038101906104379190613543565b611b5e565b005b60007f80ac58cd000000000000000000000000000000000000000000000000000000007bffffffffffffffffffffffffffffffffffffffffffffffffffffffff1916827bffffffffffffffffffffffffffffffffffffffffffffffffffffffff1916148061050957507f5b5e139f000000000000000000000000000000000000000000000000000000007bffffffffffffffffffffffffffffffffffffffffffffffffffffffff1916827bffffffffffffffffffffffffffffffffffffffffffffffffffffffff1916145b8061051957506105188261216c565b5b9050919050565b6000600d60003373ffffffffffffffffffffffffffffffffffffffff1673ffffffffffffffffffffffffffffffffffffffff1681526020019081526020016000208281548110610599577f4e487b7100000000000000000000000000000000000000000000000000000000600052603260045260246000fd5b906000526020600020906007020190506106616040518060600160405280603e8152602001614cfc603e91398260010180546105d49061444c565b80601f01602080910402602001604051908101604052809291908181526020018280546106009061444c565b801561064d5780601f106106225761010080835404028352916020019161064d565b820191906000526020600020905b81548152906001019060200180831161063057829003601f168201915b5050505050836003015484600501546121d6565b6107396040518060400160405280601b81526020017f426f73732025732068617320257320485020616e642025732041440000000000815250600660000180546106aa9061444c565b80601f01602080910402602001604051908101604052809291908181526020018280546106d69061444c565b80156107235780601f106106f857610100808354040283529160200191610723565b820191906000526020600020905b81548152906001019060200180831161070657829003601f168201915b50505050506006600201546006600401546121d6565b6000816003015411610780576040517f08c379a000000000000000000000000000000000000000000000000000000000815260040161077790614014565b60405180910390fd5b6000600660020154116107c8576040517f08c379a00000000000000000000000000000000000000000000000000000000081526004016107bf90613f14565b60405180910390fd5b806005015460066002015410156107e9576000600660020181905550610808565b80600501546006600201546107fe9190614362565b6006600201819055505b600660040154816003015410156108285760008160030181905550610846565b600660040154816003015461083d9190614362565b81600301819055505b61086d604051806060016040528060258152602001614cd760259139600660020154612278565b610893604051806060016040528060288152602001614d7a602891398260030154612278565b7f838ab28464562786a6c4ab2311964b82fa60bd9b14aa7e856af1f3f18d41a41460066002015482600301546040516108cd929190614175565b60405180910390a15050565b6108e16131a7565b60066040518060a00160405290816000820180546108fe9061444c565b80601f016020809104026020016040519081016040528092919081815260200182805461092a9061444c565b80156109775780601f1061094c57610100808354040283529160200191610977565b820191906000526020600020905b81548152906001019060200180831161095a57829003601f168201915b505050505081526020016001820180546109909061444c565b80601f01602080910402602001604051908101604052809291908181526020018280546109bc9061444c565b8015610a095780601f106109de57610100808354040283529160200191610a09565b820191906000526020600020905b8154815290600101906020018083116109ec57829003601f168201915b505050505081526020016002820154815260200160038201548152602001600482015481525050905090565b606060008054610a449061444c565b80601f0160208091040260200160405190810160405280929190818152602001828054610a709061444c565b8015610abd5780601f10610a9257610100808354040283529160200191610abd565b820191906000526020600020905b815481529060010190602001808311610aa057829003601f168201915b5050505050905090565b6000610ad282612314565b610b11576040517f08c379a0000000000000000000000000000000000000000000000000000000008152600401610b0890614054565b60405180910390fd5b6004600083815260200190815260200160002060009054906101000a900473ffffffffffffffffffffffffffffffffffffffff169050919050565b6000610b5782610edb565b90508073ffffffffffffffffffffffffffffffffffffffff168373ffffffffffffffffffffffffffffffffffffffff161415610bc8576040517f08c379a0000000000000000000000000000000000000000000000000000000008152600401610bbf90614074565b60405180910390fd5b8073ffffffffffffffffffffffffffffffffffffffff16610be7612380565b73ffffffffffffffffffffffffffffffffffffffff161480610c165750610c1581610c10612380565b611aca565b5b610c55576040517f08c379a0000000000000000000000000000000000000000000000000000000008152600401610c4c90613fb4565b60405180910390fd5b610c5f8383612388565b505050565b610c75610c6f612380565b82612441565b610cb4576040517f08c379a0000000000000000000000000000000000000000000000000000000008152600401610cab90614094565b60405180910390fd5b610cbf83838361251f565b505050565b610cdf83838360405180602001604052806000815250611239565b505050565b600d6020528160005260406000208181548110610d0057600080fd5b906000526020600020906007020160009150915050806000015490806001018054610d2a9061444c565b80601f0160208091040260200160405190810160405280929190818152602001828054610d569061444c565b8015610da35780601f10610d7857610100808354040283529160200191610da3565b820191906000526020600020905b815481529060010190602001808311610d8657829003601f168201915b505050505090806002018054610db89061444c565b80601f0160208091040260200160405190810160405280929190818152602001828054610de49061444c565b8015610e315780601f10610e0657610100808354040283529160200191610e31565b820191906000526020600020905b815481529060010190602001808311610e1457829003601f168201915b505050505090806003015490806004015490806005015490806006018054610e589061444c565b80601f0160208091040260200160405190810160405280929190818152602001828054610e849061444c565b8015610ed15780601f10610ea657610100808354040283529160200191610ed1565b820191906000526020600020905b815481529060010190602001808311610eb457829003601f168201915b5050505050905087565b6000806002600084815260200190815260200160002060009054906101000a900473ffffffffffffffffffffffffffffffffffffffff169050600073ffffffffffffffffffffffffffffffffffffffff168173ffffffffffffffffffffffffffffffffffffffff161415610f84576040517f08c379a0000000000000000000000000000000000000000000000000000000008152600401610f7b90613ff4565b60405180910390fd5b80915050919050565b60008073ffffffffffffffffffffffffffffffffffffffff168273ffffffffffffffffffffffffffffffffffffffff161415610ffe576040517f08c379a0000000000000000000000000000000000000000000000000000000008152600401610ff590613fd4565b60405180910390fd5b600360008373ffffffffffffffffffffffffffffffffffffffff1673ffffffffffffffffffffffffffffffffffffffff168152602001908152602001600020549050919050565b600e6020528060005260406000206000915090505481565b60606001805461106c9061444c565b80601f01602080910402602001604051908101604052809291908181526020018280546110989061444c565b80156110e55780601f106110ba576101008083540402835291602001916110e5565b820191906000526020600020905b8154815290600101906020018083116110c857829003601f168201915b5050505050905090565b6111016110fa612380565b8383612786565b5050565b60068060000180546111169061444c565b80601f01602080910402602001604051908101604052809291908181526020018280546111429061444c565b801561118f5780601f106111645761010080835404028352916020019161118f565b820191906000526020600020905b81548152906001019060200180831161117257829003601f168201915b5050505050908060010180546111a49061444c565b80601f01602080910402602001604051908101604052809291908181526020018280546111d09061444c565b801561121d5780601f106111f25761010080835404028352916020019161121d565b820191906000526020600020905b81548152906001019060200180831161120057829003601f168201915b5050505050908060020154908060030154908060040154905085565b61124a611244612380565b83612441565b611289576040517f08c379a000000000000000000000000000000000000000000000000000000000815260040161128090614094565b60405180910390fd5b611295848484846128f3565b50505050565b6060600c805480602002602001604051908101604052809291908181526020016000905b828210156114cf57838290600052602060002090600702016040518060e0016040529081600082015481526020016001820180546112fc9061444c565b80601f01602080910402602001604051908101604052809291908181526020018280546113289061444c565b80156113755780601f1061134a57610100808354040283529160200191611375565b820191906000526020600020905b81548152906001019060200180831161135857829003601f168201915b5050505050815260200160028201805461138e9061444c565b80601f01602080910402602001604051908101604052809291908181526020018280546113ba9061444c565b80156114075780601f106113dc57610100808354040283529160200191611407565b820191906000526020600020905b8154815290600101906020018083116113ea57829003601f168201915b5050505050815260200160038201548152602001600482015481526020016005820154815260200160068201805461143e9061444c565b80601f016020809104026020016040519081016040528092919081815260200182805461146a9061444c565b80156114b75780601f1061148c576101008083540402835291602001916114b7565b820191906000526020600020905b81548152906001019060200180831161149a57829003601f168201915b505050505081525050815260200190600101906112bf565b50505050905090565b60606000600d60003373ffffffffffffffffffffffffffffffffffffffff1673ffffffffffffffffffffffffffffffffffffffff1681526020019081526020016000208381548110611553577f4e487b7100000000000000000000000000000000000000000000000000000000600052603260045260246000fd5b90600052602060002090600702016040518060e0016040529081600082015481526020016001820180546115869061444c565b80601f01602080910402602001604051908101604052809291908181526020018280546115b29061444c565b80156115ff5780601f106115d4576101008083540402835291602001916115ff565b820191906000526020600020905b8154815290600101906020018083116115e257829003601f168201915b505050505081526020016002820180546116189061444c565b80601f01602080910402602001604051908101604052809291908181526020018280546116449061444c565b80156116915780601f1061166657610100808354040283529160200191611691565b820191906000526020600020905b81548152906001019060200180831161167457829003601f168201915b505050505081526020016003820154815260200160048201548152602001600582015481526020016006820180546116c89061444c565b80601f01602080910402602001604051908101604052809291908181526020018280546116f49061444c565b80156117415780601f1061171657610100808354040283529160200191611741565b820191906000526020600020905b81548152906001019060200180831161172457829003601f168201915b5050505050815250509050600061175b826060015161294f565b9050600061176c836080015161294f565b9050600061177d8460a0015161294f565b905060006117c985602001516117928961294f565b87604001518787878b60c001516040516020016117b59796959493929190613b7c565b604051602081830303815290604052612afc565b90506000816040516020016117de9190613c39565b6040516020818303038152906040529050809650505050505050919050565b60606000600e60003373ffffffffffffffffffffffffffffffffffffffff1673ffffffffffffffffffffffffffffffffffffffff1681526020019081526020016000205410611ac057600d60003373ffffffffffffffffffffffffffffffffffffffff1673ffffffffffffffffffffffffffffffffffffffff168152602001908152602001600020805480602002602001604051908101604052809291908181526020016000905b82821015611ab557838290600052602060002090600702016040518060e0016040529081600082015481526020016001820180546118e29061444c565b80601f016020809104026020016040519081016040528092919081815260200182805461190e9061444c565b801561195b5780601f106119305761010080835404028352916020019161195b565b820191906000526020600020905b81548152906001019060200180831161193e57829003601f168201915b505050505081526020016002820180546119749061444c565b80601f01602080910402602001604051908101604052809291908181526020018280546119a09061444c565b80156119ed5780601f106119c2576101008083540402835291602001916119ed565b820191906000526020600020905b8154815290600101906020018083116119d057829003601f168201915b50505050508152602001600382015481526020016004820154815260200160058201548152602001600682018054611a249061444c565b80601f0160208091040260200160405190810160405280929190818152602001828054611a509061444c565b8015611a9d5780601f10611a7257610100808354040283529160200191611a9d565b820191906000526020600020905b815481529060010190602001808311611a8057829003601f168201915b505050505081525050815260200190600101906118a5565b505050509050611ac7565b6060809150505b90565b6000600560008473ffffffffffffffffffffffffffffffffffffffff1673ffffffffffffffffffffffffffffffffffffffff16815260200190815260200160002060008373ffffffffffffffffffffffffffffffffffffffff1673ffffffffffffffffffffffffffffffffffffffff16815260200190815260200160002060009054906101000a900460ff16905092915050565b6000611b6a600b612cba565b9050611b8233600183611b7d9190614362565b612cc8565b600d60003373ffffffffffffffffffffffffffffffffffffffff1673ffffffffffffffffffffffffffffffffffffffff1681526020019081526020016000206040518060e00160405280848152602001600c8581548110611c0c577f4e487b7100000000000000000000000000000000000000000000000000000000600052603260045260246000fd5b90600052602060002090600702016001018054611c289061444c565b80601f0160208091040260200160405190810160405280929190818152602001828054611c549061444c565b8015611ca15780601f10611c7657610100808354040283529160200191611ca1565b820191906000526020600020905b815481529060010190602001808311611c8457829003601f168201915b50505050508152602001600c8581548110611ce5577f4e487b7100000000000000000000000000000000000000000000000000000000600052603260045260246000fd5b90600052602060002090600702016002018054611d019061444c565b80601f0160208091040260200160405190810160405280929190818152602001828054611d2d9061444c565b8015611d7a5780601f10611d4f57610100808354040283529160200191611d7a565b820191906000526020600020905b815481529060010190602001808311611d5d57829003601f168201915b50505050508152602001600c8581548110611dbe577f4e487b7100000000000000000000000000000000000000000000000000000000600052603260045260246000fd5b9060005260206000209060070201600301548152602001600c8581548110611e0f577f4e487b7100000000000000000000000000000000000000000000000000000000600052603260045260246000fd5b9060005260206000209060070201600401548152602001600c8581548110611e60577f4e487b7100000000000000000000000000000000000000000000000000000000600052603260045260246000fd5b9060005260206000209060070201600501548152602001600c8581548110611eb1577f4e487b7100000000000000000000000000000000000000000000000000000000600052603260045260246000fd5b90600052602060002090600702016006018054611ecd9061444c565b80601f0160208091040260200160405190810160405280929190818152602001828054611ef99061444c565b8015611f465780601f10611f1b57610100808354040283529160200191611f46565b820191906000526020600020905b815481529060010190602001808311611f2957829003601f168201915b50505050508152509080600181540180825580915050600190039060005260206000209060070201600090919091909150600082015181600001556020820151816001019080519060200190611f9d9291906131d6565b506040820151816002019080519060200190611fba9291906131d6565b50606082015181600301556080820151816004015560a0820151816005015560c0820151816006019080519060200190611ff59291906131d6565b50505061201b6040518060600160405280602e8152602001614da2602e91398284612ce6565b6001816120289190614362565b600e60003373ffffffffffffffffffffffffffffffffffffffff1673ffffffffffffffffffffffffffffffffffffffff16815260200190815260200160002081905550612075600b612156565b7f4bc303fd457a97b4691b9af582ce71868a3d258638c8d4f8c60988a0f0bfb8cd3382846040516120a893929190613cc2565b60405180910390a15050565b612150848484846040516024016120ce9493929190613d58565b6040516020818303038152906040527f8d142cdd000000000000000000000000000000000000000000000000000000007bffffffffffffffffffffffffffffffffffffffffffffffffffffffff19166020820180517bffffffffffffffffffffffffffffffffffffffffffffffffffffffff8381831617835250505050612d85565b50505050565b6001816000016000828254019250508190555050565b60007f01ffc9a7000000000000000000000000000000000000000000000000000000007bffffffffffffffffffffffffffffffffffffffffffffffffffffffff1916827bffffffffffffffffffffffffffffffffffffffffffffffffffffffff1916149050919050565b612272848484846040516024016121f09493929190613db2565b6040516020818303038152906040527fd5cf17d0000000000000000000000000000000000000000000000000000000007bffffffffffffffffffffffffffffffffffffffffffffffffffffffff19166020820180517bffffffffffffffffffffffffffffffffffffffffffffffffffffffff8381831617835250505050612d85565b50505050565b612310828260405160240161228e929190613e66565b6040516020818303038152906040527f9710a9d0000000000000000000000000000000000000000000000000000000007bffffffffffffffffffffffffffffffffffffffffffffffffffffffff19166020820180517bffffffffffffffffffffffffffffffffffffffffffffffffffffffff8381831617835250505050612d85565b5050565b60008073ffffffffffffffffffffffffffffffffffffffff166002600084815260200190815260200160002060009054906101000a900473ffffffffffffffffffffffffffffffffffffffff1673ffffffffffffffffffffffffffffffffffffffff1614159050919050565b600033905090565b816004600083815260200190815260200160002060006101000a81548173ffffffffffffffffffffffffffffffffffffffff021916908373ffffffffffffffffffffffffffffffffffffffff160217905550808273ffffffffffffffffffffffffffffffffffffffff166123fb83610edb565b73ffffffffffffffffffffffffffffffffffffffff167f8c5be1e5ebec7d5bd14f71427d1e84f3dd0314c0f7b2291e5b200ac8c7c3b92560405160405180910390a45050565b600061244c82612314565b61248b576040517f08c379a000000000000000000000000000000000000000000000000000000000815260040161248290613f94565b60405180910390fd5b600061249683610edb565b90508073ffffffffffffffffffffffffffffffffffffffff168473ffffffffffffffffffffffffffffffffffffffff16148061250557508373ffffffffffffffffffffffffffffffffffffffff166124ed84610ac7565b73ffffffffffffffffffffffffffffffffffffffff16145b8061251657506125158185611aca565b5b91505092915050565b8273ffffffffffffffffffffffffffffffffffffffff1661253f82610edb565b73ffffffffffffffffffffffffffffffffffffffff1614612595576040517f08c379a000000000000000000000000000000000000000000000000000000000815260040161258c90613ef4565b60405180910390fd5b600073ffffffffffffffffffffffffffffffffffffffff168273ffffffffffffffffffffffffffffffffffffffff161415612605576040517f08c379a00000000000000000000000000000000000000000000000000000000081526004016125fc90613f54565b60405180910390fd5b612610838383612dae565b61261b600082612388565b6001600360008573ffffffffffffffffffffffffffffffffffffffff1673ffffffffffffffffffffffffffffffffffffffff168152602001908152602001600020600082825461266b9190614362565b925050819055506001600360008473ffffffffffffffffffffffffffffffffffffffff1673ffffffffffffffffffffffffffffffffffffffff16815260200190815260200160002060008282546126c29190614281565b92505081905550816002600083815260200190815260200160002060006101000a81548173ffffffffffffffffffffffffffffffffffffffff021916908373ffffffffffffffffffffffffffffffffffffffff160217905550808273ffffffffffffffffffffffffffffffffffffffff168473ffffffffffffffffffffffffffffffffffffffff167fddf252ad1be2c89b69c2b068fc378daa952ba7f163c4a11628f55a4df523b3ef60405160405180910390a4612781838383612db3565b505050565b8173ffffffffffffffffffffffffffffffffffffffff168373ffffffffffffffffffffffffffffffffffffffff1614156127f5576040517f08c379a00000000000000000000000000000000000000000000000000000000081526004016127ec90613f74565b60405180910390fd5b80600560008573ffffffffffffffffffffffffffffffffffffffff1673ffffffffffffffffffffffffffffffffffffffff16815260200190815260200160002060008473ffffffffffffffffffffffffffffffffffffffff1673ffffffffffffffffffffffffffffffffffffffff16815260200190815260200160002060006101000a81548160ff0219169083151502179055508173ffffffffffffffffffffffffffffffffffffffff168373ffffffffffffffffffffffffffffffffffffffff167f17307eab39ab6107e8899845ad3d59bd9653f200f220920489ca2b5937696c31836040516128e69190613d1b565b60405180910390a3505050565b6128fe84848461251f565b61290a84848484612db8565b612949576040517f08c379a000000000000000000000000000000000000000000000000000000000815260040161294090613ed4565b60405180910390fd5b50505050565b60606000821415612997576040518060400160405280600181526020017f30000000000000000000000000000000000000000000000000000000000000008152509050612af7565b600082905060005b600082146129c95780806129b2906144af565b915050600a826129c291906142d7565b915061299f565b60008167ffffffffffffffff811115612a0b577f4e487b7100000000000000000000000000000000000000000000000000000000600052604160045260246000fd5b6040519080825280601f01601f191660200182016040528015612a3d5781602001600182028036833780820191505090505b5090505b60008514612af057600182612a569190614362565b9150600a85612a6591906144f8565b6030612a719190614281565b60f81b818381518110612aad577f4e487b7100000000000000000000000000000000000000000000000000000000600052603260045260246000fd5b60200101907effffffffffffffffffffffffffffffffffffffffffffffffffffffffffffff1916908160001a905350600a85612ae991906142d7565b9450612a41565b8093505050505b919050565b60606000825190506000811415612b255760405180602001604052806000815250915050612cb5565b60006003600283612b369190614281565b612b4091906142d7565b6004612b4c9190614308565b90506000602082612b5d9190614281565b67ffffffffffffffff811115612b9c577f4e487b7100000000000000000000000000000000000000000000000000000000600052604160045260246000fd5b6040519080825280601f01601f191660200182016040528015612bce5781602001600182028036833780820191505090505b5090506000604051806060016040528060408152602001614d3a604091399050600181016020830160005b86811015612c725760038101905062ffffff818a015116603f8160121c168401518060081b905060ff603f83600c1c1686015116810190508060081b905060ff603f8360061c1686015116810190508060081b905060ff603f831686015116810190508060e01b90508084526004840193505050612bf9565b506003860660018114612c8c5760028114612c9c57612ca7565b613d3d60f01b6002830352612ca7565b603d60f81b60018303525b508484525050819450505050505b919050565b600081600001549050919050565b612ce2828260405180602001604052806000815250612f4f565b5050565b612d80838383604051602401612cfe93929190613e96565b6040516020818303038152906040527f969cdd03000000000000000000000000000000000000000000000000000000007bffffffffffffffffffffffffffffffffffffffffffffffffffffffff19166020820180517bffffffffffffffffffffffffffffffffffffffffffffffffffffffff8381831617835250505050612d85565b505050565b60008151905060006a636f6e736f6c652e6c6f679050602083016000808483855afa5050505050565b505050565b505050565b6000612dd98473ffffffffffffffffffffffffffffffffffffffff16612faa565b15612f42578373ffffffffffffffffffffffffffffffffffffffff1663150b7a02612e02612380565b8786866040518563ffffffff1660e01b8152600401612e249493929190613c76565b602060405180830381600087803b158015612e3e57600080fd5b505af1925050508015612e6f57506040513d601f19601f82011682018060405250810190612e6c919061351a565b60015b612ef2573d8060008114612e9f576040519150601f19603f3d011682016040523d82523d6000602084013e612ea4565b606091505b50600081511415612eea576040517f08c379a0000000000000000000000000000000000000000000000000000000008152600401612ee190613ed4565b60405180910390fd5b805181602001fd5b63150b7a0260e01b7bffffffffffffffffffffffffffffffffffffffffffffffffffffffff1916817bffffffffffffffffffffffffffffffffffffffffffffffffffffffff191614915050612f47565b600190505b949350505050565b612f598383612fcd565b612f666000848484612db8565b612fa5576040517f08c379a0000000000000000000000000000000000000000000000000000000008152600401612f9c90613ed4565b60405180910390fd5b505050565b6000808273ffffffffffffffffffffffffffffffffffffffff163b119050919050565b600073ffffffffffffffffffffffffffffffffffffffff168273ffffffffffffffffffffffffffffffffffffffff16141561303d576040517f08c379a000000000000000000000000000000000000000000000000000000000815260040161303490614034565b60405180910390fd5b61304681612314565b15613086576040517f08c379a000000000000000000000000000000000000000000000000000000000815260040161307d90613f34565b60405180910390fd5b61309260008383612dae565b6001600360008473ffffffffffffffffffffffffffffffffffffffff1673ffffffffffffffffffffffffffffffffffffffff16815260200190815260200160002060008282546130e29190614281565b92505081905550816002600083815260200190815260200160002060006101000a81548173ffffffffffffffffffffffffffffffffffffffff021916908373ffffffffffffffffffffffffffffffffffffffff160217905550808273ffffffffffffffffffffffffffffffffffffffff16600073ffffffffffffffffffffffffffffffffffffffff167fddf252ad1be2c89b69c2b068fc378daa952ba7f163c4a11628f55a4df523b3ef60405160405180910390a46131a360008383612db3565b5050565b6040518060a0016040528060608152602001606081526020016000815260200160008152602001600081525090565b8280546131e29061444c565b90600052602060002090601f016020900481019282613204576000855561324b565b82601f1061321d57805160ff191683800117855561324b565b8280016001018555821561324b579182015b8281111561324a57825182559160200191906001019061322f565b5b509050613258919061325c565b5090565b5b8082111561327557600081600090555060010161325d565b5090565b600061328c613287846141c3565b61419e565b9050828152602081018484840111156132a457600080fd5b6132af84828561440a565b509392505050565b6000813590506132c681614c7a565b92915050565b6000813590506132db81614c91565b92915050565b6000813590506132f081614ca8565b92915050565b60008151905061330581614ca8565b92915050565b600082601f83011261331c57600080fd5b813561332c848260208601613279565b91505092915050565b60008135905061334481614cbf565b92915050565b60006020828403121561335c57600080fd5b600061336a848285016132b7565b91505092915050565b6000806040838503121561338657600080fd5b6000613394858286016132b7565b92505060206133a5858286016132b7565b9150509250929050565b6000806000606084860312156133c457600080fd5b60006133d2868287016132b7565b93505060206133e3868287016132b7565b92505060406133f486828701613335565b9150509250925092565b6000806000806080858703121561341457600080fd5b6000613422878288016132b7565b9450506020613433878288016132b7565b935050604061344487828801613335565b925050606085013567ffffffffffffffff81111561346157600080fd5b61346d8782880161330b565b91505092959194509250565b6000806040838503121561348c57600080fd5b600061349a858286016132b7565b92505060206134ab858286016132cc565b9150509250929050565b600080604083850312156134c857600080fd5b60006134d6858286016132b7565b92505060206134e785828601613335565b9150509250929050565b60006020828403121561350357600080fd5b6000613511848285016132e1565b91505092915050565b60006020828403121561352c57600080fd5b600061353a848285016132f6565b91505092915050565b60006020828403121561355557600080fd5b600061356384828501613335565b91505092915050565b60006135788383613ab4565b905092915050565b61358981614396565b82525050565b600061359a82614204565b6135a48185614232565b9350836020820285016135b6856141f4565b8060005b858110156135f257848403895281516135d3858261356c565b94506135de83614225565b925060208a019950506001810190506135ba565b50829750879550505050505092915050565b61360d816143a8565b82525050565b600061361e8261420f565b6136288185614243565b9350613638818560208601614419565b613641816145e5565b840191505092915050565b60006136578261421a565b6136618185614254565b9350613671818560208601614419565b61367a816145e5565b840191505092915050565b60006136908261421a565b61369a8185614265565b93506136aa818560208601614419565b6136b3816145e5565b840191505092915050565b60006136c98261421a565b6136d38185614276565b93506136e3818560208601614419565b80840191505092915050565b60006136fc600b83614276565b9150613707826145f6565b600b82019050919050565b600061371f600583614276565b915061372a8261461f565b600582019050919050565b6000613742603283614265565b915061374d82614648565b604082019050919050565b6000613765602583614265565b915061377082614697565b604082019050919050565b6000613788602883614265565b9150613793826146e6565b604082019050919050565b60006137ab601c83614265565b91506137b682614735565b602082019050919050565b60006137ce600e83614276565b91506137d98261475e565b600e82019050919050565b60006137f1602483614265565b91506137fc82614787565b604082019050919050565b6000613814601983614265565b915061381f826147d6565b602082019050919050565b6000613837602c83614265565b9150613842826147ff565b604082019050919050565b600061385a603883614265565b91506138658261484e565b604082019050919050565b600061387d602a83614265565b91506138888261489d565b604082019050919050565b60006138a0602983614265565b91506138ab826148ec565b604082019050919050565b60006138c3602983614276565b91506138ce8261493b565b602982019050919050565b60006138e6606283614276565b91506138f18261498a565b606282019050919050565b6000613909602d83614265565b915061391482614a25565b604082019050919050565b600061392c602083614265565b915061393782614a74565b602082019050919050565b600061394f602c83614265565b915061395a82614a9d565b604082019050919050565b6000613972600a83614276565b915061397d82614aec565b600a82019050919050565b6000613995602183614265565b91506139a082614b15565b604082019050919050565b60006139b8601d83614276565b91506139c382614b64565b601d82019050919050565b60006139db603183614265565b91506139e682614b8d565b604082019050919050565b60006139fe603d83614276565b9150613a0982614bdc565b603d82019050919050565b6000613a21602d83614276565b9150613a2c82614c2b565b602d82019050919050565b600060a0830160008301518482036000860152613a54828261364c565b91505060208301518482036020860152613a6e828261364c565b9150506040830151613a836040860182613b5e565b506060830151613a966060860182613b5e565b506080830151613aa96080860182613b5e565b508091505092915050565b600060e083016000830151613acc6000860182613b5e565b5060208301518482036020860152613ae4828261364c565b91505060408301518482036040860152613afe828261364c565b9150506060830151613b136060860182613b5e565b506080830151613b266080860182613b5e565b5060a0830151613b3960a0860182613b5e565b5060c083015184820360c0860152613b51828261364c565b9150508091505092915050565b613b6781614400565b82525050565b613b7681614400565b82525050565b6000613b8782613965565b9150613b93828a6136be565b9150613b9e826136ef565b9150613baa82896136be565b9150613bb5826138d9565b9150613bc182886136be565b9150613bcc826139f1565b9150613bd882876136be565b9150613be3826137c1565b9150613bef82866136be565b9150613bfa82613a14565b9150613c0682856136be565b9150613c11826138b6565b9150613c1d82846136be565b9150613c2882613712565b915081905098975050505050505050565b6000613c44826139ab565b9150613c5082846136be565b915081905092915050565b6000602082019050613c706000830184613580565b92915050565b6000608082019050613c8b6000830187613580565b613c986020830186613580565b613ca56040830185613b6d565b8181036060830152613cb78184613613565b905095945050505050565b6000606082019050613cd76000830186613580565b613ce46020830185613b6d565b613cf16040830184613b6d565b949350505050565b60006020820190508181036000830152613d13818461358f565b905092915050565b6000602082019050613d306000830184613604565b92915050565b60006020820190508181036000830152613d508184613685565b905092915050565b60006080820190508181036000830152613d728187613685565b90508181036020830152613d868186613685565b9050613d956040830185613b6d565b8181036060830152613da78184613685565b905095945050505050565b60006080820190508181036000830152613dcc8187613685565b90508181036020830152613de08186613685565b9050613def6040830185613b6d565b613dfc6060830184613b6d565b95945050505050565b600060a0820190508181036000830152613e1f8188613685565b90508181036020830152613e338187613685565b9050613e426040830186613b6d565b613e4f6060830185613b6d565b613e5c6080830184613b6d565b9695505050505050565b60006040820190508181036000830152613e808185613685565b9050613e8f6020830184613b6d565b9392505050565b60006060820190508181036000830152613eb08186613685565b9050613ebf6020830185613b6d565b613ecc6040830184613b6d565b949350505050565b60006020820190508181036000830152613eed81613735565b9050919050565b60006020820190508181036000830152613f0d81613758565b9050919050565b60006020820190508181036000830152613f2d8161377b565b9050919050565b60006020820190508181036000830152613f4d8161379e565b9050919050565b60006020820190508181036000830152613f6d816137e4565b9050919050565b60006020820190508181036000830152613f8d81613807565b9050919050565b60006020820190508181036000830152613fad8161382a565b9050919050565b60006020820190508181036000830152613fcd8161384d565b9050919050565b60006020820190508181036000830152613fed81613870565b9050919050565b6000602082019050818103600083015261400d81613893565b9050919050565b6000602082019050818103600083015261402d816138fc565b9050919050565b6000602082019050818103600083015261404d8161391f565b9050919050565b6000602082019050818103600083015261406d81613942565b9050919050565b6000602082019050818103600083015261408d81613988565b9050919050565b600060208201905081810360008301526140ad816139ce565b9050919050565b600060208201905081810360008301526140ce8184613a37565b905092915050565b60006020820190506140eb6000830184613b6d565b92915050565b600060e082019050614106600083018a613b6d565b81810360208301526141188189613685565b9050818103604083015261412c8188613685565b905061413b6060830187613b6d565b6141486080830186613b6d565b61415560a0830185613b6d565b81810360c08301526141678184613685565b905098975050505050505050565b600060408201905061418a6000830185613b6d565b6141976020830184613b6d565b9392505050565b60006141a86141b9565b90506141b4828261447e565b919050565b6000604051905090565b600067ffffffffffffffff8211156141de576141dd6145b6565b5b6141e7826145e5565b9050602081019050919050565b6000819050602082019050919050565b600081519050919050565b600081519050919050565b600081519050919050565b6000602082019050919050565b600082825260208201905092915050565b600082825260208201905092915050565b600082825260208201905092915050565b600082825260208201905092915050565b600081905092915050565b600061428c82614400565b915061429783614400565b9250827fffffffffffffffffffffffffffffffffffffffffffffffffffffffffffffffff038211156142cc576142cb614529565b5b828201905092915050565b60006142e282614400565b91506142ed83614400565b9250826142fd576142fc614558565b5b828204905092915050565b600061431382614400565b915061431e83614400565b9250817fffffffffffffffffffffffffffffffffffffffffffffffffffffffffffffffff048311821515161561435757614356614529565b5b828202905092915050565b600061436d82614400565b915061437883614400565b92508282101561438b5761438a614529565b5b828203905092915050565b60006143a1826143e0565b9050919050565b60008115159050919050565b60007fffffffff0000000000000000000000000000000000000000000000000000000082169050919050565b600073ffffffffffffffffffffffffffffffffffffffff82169050919050565b6000819050919050565b82818337600083830152505050565b60005b8381101561443757808201518184015260208101905061441c565b83811115614446576000848401525b50505050565b6000600282049050600182168061446457607f821691505b6020821081141561447857614477614587565b5b50919050565b614487826145e5565b810181811067ffffffffffffffff821117156144a6576144a56145b6565b5b80604052505050565b60006144ba82614400565b91507fffffffffffffffffffffffffffffffffffffffffffffffffffffffffffffffff8214156144ed576144ec614529565b5b600182019050919050565b600061450382614400565b915061450e83614400565b92508261451e5761451d614558565b5b828206905092915050565b7f4e487b7100000000000000000000000000000000000000000000000000000000600052601160045260246000fd5b7f4e487b7100000000000000000000000000000000000000000000000000000000600052601260045260246000fd5b7f4e487b7100000000000000000000000000000000000000000000000000000000600052602260045260246000fd5b7f4e487b7100000000000000000000000000000000000000000000000000000000600052604160045260246000fd5b6000601f19601f8301169050919050565b7f202d2d204e465420233a20000000000000000000000000000000000000000000600082015250565b7f227d205d7d000000000000000000000000000000000000000000000000000000600082015250565b7f4552433732313a207472616e7366657220746f206e6f6e20455243373231526560008201527f63656976657220696d706c656d656e7465720000000000000000000000000000602082015250565b7f4552433732313a207472616e736665722066726f6d20696e636f72726563742060008201527f6f776e6572000000000000000000000000000000000000000000000000000000602082015250565b7f4572726f723a20626f7373206d757374206861766520485020746f206174746160008201527f636b20626f73732e000000000000000000000000000000000000000000000000602082015250565b7f4552433732313a20746f6b656e20616c7265616479206d696e74656400000000600082015250565b7f2c20226d61785f76616c7565223a000000000000000000000000000000000000600082015250565b7f4552433732313a207472616e7366657220746f20746865207a65726f2061646460008201527f7265737300000000000000000000000000000000000000000000000000000000602082015250565b7f4552433732313a20617070726f766520746f2063616c6c657200000000000000600082015250565b7f4552433732313a206f70657261746f7220717565727920666f72206e6f6e657860008201527f697374656e7420746f6b656e0000000000000000000000000000000000000000602082015250565b7f4552433732313a20617070726f76652063616c6c6572206973206e6f74206f7760008201527f6e6572206e6f7220617070726f76656420666f7220616c6c0000000000000000602082015250565b7f4552433732313a2062616c616e636520717565727920666f7220746865207a6560008201527f726f206164647265737300000000000000000000000000000000000000000000602082015250565b7f4552433732313a206f776e657220717565727920666f72206e6f6e657869737460008201527f656e7420746f6b656e0000000000000000000000000000000000000000000000602082015250565b7f7d2c207b202274726169745f74797065223a202250726563696f7573222c202260008201527f76616c7565223a20220000000000000000000000000000000000000000000000602082015250565b7f222c20226465736372697074696f6e223a20225468697320697320616e204e4660008201527f542074686174206c6574732070656f706c6520706c617920696e20746865206760208201527f616d65204d657461766572736520536c6179657221222c2022696d616765223a60408201527f2022000000000000000000000000000000000000000000000000000000000000606082015250565b7f4572726f723a20636861726163746572206d757374206861766520485020746f60008201527f2061747461636b20626f73732e00000000000000000000000000000000000000602082015250565b7f4552433732313a206d696e7420746f20746865207a65726f2061646472657373600082015250565b7f4552433732313a20617070726f76656420717565727920666f72206e6f6e657860008201527f697374656e7420746f6b656e0000000000000000000000000000000000000000602082015250565b7f7b226e616d65223a202200000000000000000000000000000000000000000000600082015250565b7f4552433732313a20617070726f76616c20746f2063757272656e74206f776e6560008201527f7200000000000000000000000000000000000000000000000000000000000000602082015250565b7f646174613a6170706c69636174696f6e2f6a736f6e3b6261736536342c000000600082015250565b7f4552433732313a207472616e736665722063616c6c6572206973206e6f74206f60008201527f776e6572206e6f7220617070726f766564000000000000000000000000000000602082015250565b7f222c202261747472696275746573223a205b207b202274726169745f7479706560008201527f223a20224865616c746820506f696e7473222c202276616c7565223a20000000602082015250565b7f7d2c207b202274726169745f74797065223a202241747461636b2044616d616760008201527f65222c202276616c7565223a2000000000000000000000000000000000000000602082015250565b614c8381614396565b8114614c8e57600080fd5b50565b614c9a816143a8565b8114614ca557600080fd5b50565b614cb1816143b4565b8114614cbc57600080fd5b50565b614cc881614400565b8114614cd357600080fd5b5056fe506c617965722061747461636b656420626f73732e204e657720626f73732068703a2025730a506c617965722077697468206368617261637465722025732061626f757420746f2061747461636b2e2048617320257320485020616e642025732041444142434445464748494a4b4c4d4e4f505152535455565758595a6162636465666768696a6b6c6d6e6f707172737475767778797a303132333435363738392b2f426f73732061747461636b656420706c617965722e204e657720706c617965722068703a2025730a4d696e746564204e465420772f20746f6b656e496420257320616e6420636861726163746572496e646578202573a2646970667358221220d35094f44532d63da32403d47d72b1f21508f304404b56911c561e18106644dc64736f6c63430008040033446f6e6520696e697469616c697a696e6720257320772f2048502025732c20696d67202573446f6e6520696e697469616c697a696e6720626f737320257320776974682048502025732c20696d67202573",
  "linkReferences": {},
  "deployedLinkReferences": {}
}